:100000000C9438000C9442000C9442000C94420072
:100010000C9442000C9442000C9442000C94420058
:100020000C9442000C9442000C9442000C94420048
:100030000C9442000C9442000C9442000C94420038
:100040000C9442000C9442000C9442000C94420028
:100050000C9442000C9442000C9442000C94420018
:100060000C9442000C9442000C9442000C94420008
:1000700011241FBECFEFD0E1DEBFCDBF0E944400F0
:100080000C945C000C9400008FEF84B985B915B80E
:100090002FEF39E698E1215030409040E1F700C061
:1000A000000085B92FEF39E698E1215030409040AB
:0C00B000E1F700C00000EBCFF894FFCF98
:00000001FF
